:100000000C945C000C9479000C9479000C947900A9
:100010000C9479000C9479000C9479000C9479007C
:100020000C9479000C9479000C9479000C9479006C
:100030000C9479000C9479000C9479000C9479005C
:100040000C944F010C9479000C9479000C94790075
:100050000C9479000C9479000C9479000C9479003C
:100060000C9479000C947900000000002400270013
:100070002A0000000000250028002B0004040404CE
:100080000404040402020202020203030303030342
:10009000010204081020408001020408102001021F
:1000A00004081020000000080002010000030407FB
:1000B000000000000000000011241FBECFEFD8E0B8
:1000C000DEBFCDBF11E0A0E0B1E0EAEEF5E002C096
:1000D00005900D92A031B107D9F721E0A0E1B1E080
:1000E00001C01D92A931B207E1F70E9499010C9459
:1000F000F3020C94000090E0FC01EC55FF4F2491BA
:10010000FC01E057FF4F3491FC01E458FF4FE491AC
:10011000EE23C9F0222339F0233001F1A8F4213075
:1001200019F1223029F1F0E0EE0FFF1FEE58FF4FDA
:10013000A591B4918FB7F894EC91611126C03095D8
:100140003E233C938FBF08952730A9F02830C9F093
:10015000243049F7809180008F7D03C0809180001A
:100160008F7780938000DFCF84B58F7784BDDBCF1E
:1001700084B58F7DFBCF8091B0008F778093B000E6
:10018000D2CF8091B0008F7DF9CF3E2BDACFCF93C5
:10019000DF9390E0FC01E057FF4F249184589F4F7C
:1001A000FC0184918823D1F090E0880F991FFC0115
:1001B000E859FF4FA591B491FC01EE58FF4FC5914E
:1001C000D49161110EC09FB7F8948C91E22FE09505
:1001D0008E238C932881E223E8839FBFDF91CF9108
:1001E00008958FB7F894EC91E22BEC938FBFF6CF84
:1001F0003FB7F8948091150190911601A0911701D5
:10020000B091180126B5A89B05C02F3F19F00196A3
:10021000A11DB11D3FBFBA2FA92F982F8827BC0160
:10022000CD01620F711D811D911D42E0660F771F88
:10023000881F991F4A95D1F708958F929F92AF9288
:10024000BF92CF92DF92EF92FF924B015C010E942E
:10025000F8006B017C010E94F8006C197D098E0981
:100260009F09683E734081059105A8F321E0821A39
:100270009108A108B10888EEC80E83E0D81EE11CE1
:10028000F11C81149104A104B10429F7FF90EF90AF
:10029000DF90CF90BF90AF909F908F9008951F9266
:1002A0000F920FB60F9211242F933F938F939F932A
:1002B000AF93BF938091110190911201A09113010E
:1002C000B09114013091100123E0230F2D3758F520
:1002D0000196A11DB11D20931001809311019093EF
:1002E0001201A0931301B093140180911501909114
:1002F0001601A0911701B09118010196A11DB11D21
:100300008093150190931601A0931701B0931801E3
:10031000BF91AF919F918F913F912F910F900FBE01
:100320000F901F90189526E8230F0296A11DB11D6E
:10033000D2CF789484B5826084BD84B5816084BD59
:1003400085B5826085BD85B5816085BD80916E0073
:10035000816080936E0010928100809181008260A4
:1003600080938100809181008160809381008091E1
:1003700080008160809380008091B10084608093D0
:10038000B1008091B00081608093B00080917A00CC
:10039000846080937A0080917A00826080937A00F2
:1003A00080917A00816080937A0080917A008068E1
:1003B00080937A001092C100C0E0D1E0888122963B
:1003C00061E00E94C70081E0C031D807B9F760E062
:1003D00083E00E94C70060E084E00E94C70020E044
:1003E000E22E20E0F22EC0E0D1E08881229661E08A
:1003F0000E947B0091E0C031D907B9F766E970E04F
:1004000080E090E00E941D01C0E0D1E0888122964A
:1004100060E00E947B00E1E0C031DE07B9F766E9E9
:1004200070E080E090E00E941D01C0E0D1E0188102
:10043000229661E0812F0E947B0066E970E080E0F7
:1004400090E00E941D0160E0812F0E947B0066E920
:1004500070E080E090E00E941D01F1E0C031DF0714
:1004600031F7C0E1D1E08E0102501109F801D080CE
:1004700061E08D2D0E947B0066E970E080E090E0F5
:100480000E941D0160E08D2D0E947B0066E970E0F6
:1004900080E090E00E941D01F1E000301F0721F78D
:1004A00000E111E090E0C92E91E0D92EF6018081A3
:1004B000F2E0CF0ED11C61E00E947B0002501109D6
:1004C00061E0F80180810E947B0066E970E080E0D5
:1004D00090E00E941D01F1E000301F0739F700E1B4
:1004E00011E080E0C82E81E0D82EF6018081F2E094
:1004F000CF0ED11C60E00E947B000250110960E029
:10050000F80180810E947B0066E970E080E090E065
:100510000E941D01F1E000301F0739F700E011E0F3
:10052000F801D0800E5F1F4F61E08D2D0E947B008F
:1005300064E670E080E090E00E941D0160E08D2D97
:100540000E947B0064E670E080E090E00E941D0164
:10055000F1E000311F0721F700E111E0025011091D
:10056000F801D08061E08D2D0E947B0064E670E090
:1005700080E090E00E941D0160E08D2D0E947B00D4
:1005800064E670E080E090E00E941D01F1E0003040
:100590001F0721F700E011E0F80180810E5F1F4F77
:1005A00061E00E947B0066E970E080E090E00E94DC
:1005B0001D01F1E000311F0779F7229760E0888183
:1005C0000E947B0066E970E080E090E00E941D01DF
:1005D00081E0C030D80789F7E114F10409F403CFB2
:0A05E0000E94000000CFF894FFCF46
:1005EA00050006000700080009000A000B000C00BD
:00000001FF
